S00D00004F4C4544312E73726563C2
S2144000000025402045094000410940004109400084
S21440001041094000410940004109400000000000FD
S2144000200000000000000000000000004109400001
S21440003041094000000000004109400041094000DD
S2144000404109400041094000410940004109400043
S2144000504109400041094000410940004109400033
S2144000604109400000000000A5044000B9044000DB
S214400070CD0440004109400041094000410940008C
S214400080E1044000F50440004109400041094000B9
S21440009041094000410940004109400041094000F3
S2144000A041094000410940004109400041094000E3
S2144000B041094000410940004109400041094000D3
S2144000C041094000410940004109400041094000C3
S2144000D000000000410940000000000041094000C7
S2144000E041094000410940004109400041094000A3
S2144000F04109400041094000410940004109400093
S2144001004109400041094000410940004109400082
S2144001104109400000000000000000000000000010
S2144001204109400041094000410940004109400062
S21440013041094000000000004109400041094000DC
S21440014010B5054C237833B9044B13B10448AFF3CC
S21440015000800123237010BD3C04402000000000B6
S214400160782040000C4B43B10C480D4910B5AFF316
S21440017000800C48036823B910BD0A48036833B9A9
S2144001807047094B002BF7D0BDE810401847064B88
S214400190002BF5D0184700BF000000007820400034
S2144001A040044020782040000000000010B5104871
S2144001B0104B98473E2100200F4B98470F4CA047C6
S2144001C00028FCD00E4B98470E4A0F4B9A620F4CB5
S2144001D0A0470028FCD002200D4B984700200D4B2E
S2144001E098470D4B98470248024B984710BD00BFB2
S2144001F000A3E111190B4000A5054000F905400099
S21440020009064000013F182000060E40190640002F
S21440021009054000410540000D0A40000163704753
S214400220416370474264B1F1C05F3AD013D8B1F130
S214400230006F25D0B1F1805F0AD1036F1343036787
S214400240436F416F0B4023EA0203436742607047A7
S2144002500029FBD17047B1F1205F21D009D8B1F118
S214400260005FF3D1036F13430367436F1343436742
S214400270ECE7B1F1405F13D0B1F1605F10D0E5E735
S21440028010B4016F046FD34321401C4619400167E8
S214400290436F416F0B402340436742605DF8044B19
S2144002A07047036F016F0B4023EA02030367436FF7
S2144002B013434367CAE7416412F0010F0DD101664C
S2144002C012F00A0F0BD0016212F0020F09D112F0A1
S2144002D0080F08D0C0F8841005E04166F0E7416298
S2144002E0F2E7C0F8801041610160704710B4019C8D
S2144002F041644CB901664BB101654AB9416301613D
S21440030001605DF8044B70474166F4E74165F4E7E9
S2144003100163F4E770B582B0054616461C46B1F157
S214400320005F14D00AD9B1F1405F24D0B1F1605FCC
S21440033021D0B1F1205F17D000201AE0B1F1805FE4
S21440034005D0B1F1C05F02D0B1F1006FF4D13246B2
S2144003502846114B984714F0010F02D12E66012013
S21440036007E06E66012004E01A4631460B4B98477C
S214400370012002B070BD04F001030093C4F3800373
S214400380B1F1605F14BF0022012231462846044C7A
S214400390A0470120EDE700BF25024000B70240001D
S2144003A0ED02400012F0100F12D0C0F8B01012F05C
S2144003B0200F07D0C0F8D41012F0400F05D0C0F878
S2144003C0C0107047C0F8D010F6E7C0F8C4107047A9
S2144003D0C0F8B410704701647047C06C7047806CBA
S2144003E0704700002DE9F041044688460E4B98477A
S2144003F0054620460D4B9847054013D00C4C04F15B
S214400400600603E0B4420DD010345DB1206840452C
S214400410F8D161682942F5D0E3689847636825EAD1
S2144004200305EFE7BDE8F081DB034000DF03400053
S21440043058044020F8B5184C2668062E2AD84FF0A7
S214400440000C6446154F04E00134E4B2A446A642CC
S21440045009D3A64625017D598D42F5D107EB0415F3
S2144004606D689542F0D10D4D4FEA0E1E05EB0E0419
S21440047045F80E106260A3600699E1600136664555
S21440048005D011461A46064B98470020F8BD02494B
S2144004900E60F6E70120F8BDC8044020580440200E
S2144004A0A503400008B50A210148024B984708BDFD
S2144004B0000E0E40E503400008B50B210148024BF4
S2144004C0984708BD00100E40E503400008B50C21D3
S2144004D00148024B984708BD00120E40E503400015
S2144004E008B510210148024B984708BD00140E403D
S2144004F0E503400008B511210148024B984708BD66
S21440050000160E40E5034000032811D0042812D000
S21440051002280CBF4FF480710021084A136B23F465
S21440052040730B431363936E13F0080FFBD0704772
S2144005304FF44071F1E74FF40071EEE700060E40CD
S214400540174A136B23F0700318431063936E13F02F
S214400550080F0AD14FF4805311498A6E12F0080FE3
S21440056003D1013BF9D1012070470D4A136B23F0AC
S214400570030343F002031363936E13F0080F0AD18C
S2144005804FF4805306498A6E12F0080F05D1013B9E
S214400590F9D101207047002070470020704700BF07
S2144005A000060E40A0B90E48036A090289B20D4AF9
S2144005B01A400D4B1343194301620246936E13F0E3
S2144005C0010FFBD0064A116A084B0B431362704773
S2144005D003490B6A064A1A40064B13430B627047A0
S2144005E000060E40FCFFC8FF010037000000370140
S2144005F0FCFFC8FE02003701024B986E00F48030C4
S214400600704700BF00060E404FF00052014B9A6202
S214400610704700BF00060E40024B986E00F0020086
S214400620704700BF00060E403F281ED81F280CD833
S214400630114B9A6901238340934318D0012303FA50
S21440064000F00D4B18610020704720380A4BD3F855
S21440065008210123834093430BD0012303FA00F083
S214400660054BC3F80001002070470120704700206A
S21440067070470020704700BF00060E4070470000DD
S214400680104A136F23F4C00343F480031367116AC0
S2144006900D4B0B431362936E13F0080FFBD04FF4D1
S2144006A0FA7300BF013BFCD1064A136A13F0080FE9
S2144006B0FBD0044A136F23F4C00343F4800313674C
S2144006C0704700BF00060E40040037002DE9F8438F
S2144006D0431E042B00F20781DFE813F005000500F7
S2144006E015001500F600814A136923F004031361D0
S2144006F001227F4B1A70BFF35F8F62B6BFF34F8FF6
S21440070030BFBDE8F883044603280CBF00204FF4F2
S2144007100010784B984772B6BFF35F8F0022744B39
S2144007201A700122744B1A70744B1F6A1D6B744A00
S214400730D2F800809E6A734A3A431A6205F003096B
S214400740B9F1010F40F2898025F0030141F0010123
S21440075019631A46936E13F0080FFBD011F0700F12
S21440076008D021F07001654B19631A46936E13F05A
S214400770080FFBD0644B9847604A936E13F4003FD3
S214400780FBD05E4A116A614B0B4043F45C13136224
S214400790936E13F4803FFBD028F47063584A13607E
S2144007A0042C5CD0524C01232370BFF35F8F62B69B
S2144007B0574B984772B6BFF35F8F0023237017F0EE
S2144007C0020F55D04D4A136A52491940524B0B43BB
S2144007D01362116A514B0B4043F45C131362504B47
S2144007E03340002B6ED046F00056444B9E620221AA
S2144007F0B9F1020F04D1414A936E13F0020FFBD0B9
S2144008003E4A136B23F0700305F0700003431363F6
S214400810936E13F0080FFBD0394BC3F80080A3F556
S214400820C0631D631A46936E13F0080FFBD0334A1D
S214400830936E0B42FCD000222F4B1A70394B1B682C
S2144008401BB198470022374B1A600122284B1A707A
S214400850BFF35F8F62B6BDE8F88329467EE7A2F510
S214400860C062116A304B0B4043F45C13136299E745
S21440087017F0010FB3D0214B1B6A13F0010F0BD1B9
S2144008801E490B6A294A1A40294B13430B620A46F3
S214400890936E13F0010FFBD0184B1B6A13F0807F4A
S2144008A008D1164A116A234B0B431362936E13F416
S2144008B0803FFBD0114A116A184B0B4043F45C133F
S2144008C013628CE7002193E7084A136943F0040358
S2144008D01361194A194B1A600122054B1A70BFF36F
S2144008E05F8F62B630BFBDE8F88300BF00ED00E022
S2144008F00A0040207D064000CC04402000060E4002
S214400900000C0E400800370009064000FFFFC8FEF6
S21440091081064000FCFFC8FE0200370187FFC8FF83
S2144009200000FF07D0044020FEFFC8FFFCFFC8FFC2
S2144009300100370000003701040000A510180E40E3
S214400940FEE7000000B583B0254B264A9A4210D0F9
S214400950254B234A9A420CD2013B9B1A23F00303B1
S214400960043313441F4951F8040B42F8040B9A42CF
S214400970F9D11E4B1E4A9A420AD2013B9B1A23F0DB
S214400980030304331344002142F8041B9342FBD173
S214400990184A194B23F07F039360EFF31083B3FAA2
S2144009A083F35B09019372B6BFF35F8F0022134B4C
S2144009B01A700199124A136843F470031360BFF328
S2144009C04F8FBFF36F8F29B101220C4B1A70BFF3C4
S2144009D05F8F62B60B4B98470B4B9847FEE700BFBE
S2144009E000004020782040003C044020FC0440208A
S2144009F03C04402000ED00E0000040000A0040209B
S214400A0088ED00E0F9194000350E40003B4B1B6B6B
S214400A1003F00303012B1DD083B1022B36D0374B96
S214400A201B6B03F07003702B5FD0344B1A6B34494A
S214400A30C2F302120B68D3400B607047314B5B69C0
S214400A4013F0800F14BF4FF400424FF4FA422C4B81
S214400A501A60E4E7294B1B6A13F0807F03D02A4ACA
S214400A60274B1A60DBE7294A254B1A60234B1B6A43
S214400A7003F07003102B05D0202BD0D1224A204BF8
S214400A801A60CCE7224A1E4B1A60C8E71B4B1B6A0B
S214400A9013F0807F16D01C4A194B1A60174B1B6BFD
S214400AA003F00303022BBAD1144A916A926A14489F
S214400AB0C1F30A41036801FB0333D2B2B3FBF2F33E
S214400AC00360ACE7114A0E4B1A600C4B1B6A03F0EE
S214400AD07003102B05D0202BE0D10B4A084B1A6030
S214400AE0DCE70B4A064B1A60D8E7054A1368094903
S214400AF0A1FB03135B081360704700BF00060E405F
S214400B000C00402010180E40001BB70000093D00A6
S214400B1000127A00ABAAAAAA164B984213D9164BD3
S214400B20984215D9154B984216D9154B984217D965
S214400B30144B984218D9144B984294BF134A144AFF
S214400B40144B1A6070474FF08062124B1A60704721
S214400B50114A104B1A607047104A0E4B1A60704785
S214400B600F4A0C4B1A6070474FF00422094B1A602C
S214400B70704700BFBFF35E017FE7BD023FDB1C044A
S214400B80FFCE7B05BFC2DA067FB6390800050004F3
S214400B9000060004000C0E400001000400020004A1
S214400BA0000300040122014B1A707047D404402011
S214400BB00122014B1A707047D50440202DE9F047BA
S214400BC082B0344B98474FF40042334B5A600C2067
S214400BD0324DA847DFF8E0800024009423462246A2
S214400BE04FF480714046DFF8D4A0D0471020A84785
S214400BF00C20A8470A20A847294F01234FF08052CF
S214400C004FF020513846DFF8B890C84701234FF0E0
S214400C1000424FF020514046C847224E01234FF431
S214400C2000224FF020513046C8471F4B4FF48032C9
S214400C301A60C02283F810234FF480621A60A02204
S214400C4083F80A234FF080513846DFF87890C8473B
S214400C504FF400213046C8470C20A847009423464E
S214400C6022464FF400514046D047104B0093502345
S214400C704FF08052102138460D4CA0470D4B009344
S214400C8050234FF400220A213046A04702B0BDE868
S214400C90F08700BFAD01400050180E4029064000C6
S214400CA000140E40000E0E4000E100E0A50B400090
S214400CB035044000B10B400000120E40ED024000EB
S214400CC015034000D70340002DE9F84F274B93FB10
S214400CD0F0FA01FB00F0264B83FB0038C017C0EB50
S214400CE0A818B8F1000F3FDD224CAAFB040152467B
S214400CF0D31704FB0311204A0023204C002500197B
S214400D0069411F4CA047834600251E4C1E4F1F4E70
S214400D1010E03320B0474FF480712046DFF87090E3
S214400D20C8474FF400512046C8473320B0470135E6
S214400D30A84519D04FF480712046B8474FF400516B
S214400D402046B847BAF1000FE3D05846B0474FF4B4
S214400D5080712046DFF83890C8474FF4005120464F
S214400D60C8475846B047E2E7BDE8F88F20A10700DD
S214400D70D34D621000A3E111E0835A00DF835A008E
S214400D80E916400000120E401D02400001004020BF
S214400D90210240000000000038B592FBF1F42146E5
S214400DA0134B98472046134B98470FA3D3E900238D
S214400DB0114CA047114B984718B93320104B984711
S214400DC038BDC5170F4AA0FB020102FB051141F2D0
S214400DD02C72002341F22B740025001969410A4CFD
S214400DE0A047074B984738BDCDCCCCCCCCCCF43FB5
S214400DF0C90C4000A91140007512400099164000E9
S214400E000100402000A3E111E916400030B4154629
S214400E100468013494FBF1F202FB1141016001EBDE
S214400E20410103EB810393E8070085E8070030BCE7
S214400E30704700002DE9F0418EB0264B98470025BC
S214400E400D95254B0193254B02934C230393244B3E
S214400E500493244B059338230693234B0793234B45
S214400E600893182309930AAB01AA07CA83E8070028
S214400E701F4B1D701F4B1D700124DFF884801E46DB
S214400E801D4F00E00025D4B93378DBB9184B1B78EA
S214400E9023B184F001040022154B1A70002CF2D1C5
S214400EA00C9B9D42EED24FF448720B9B53F8251094
S214400EB00A9B53F82500114B98470135E3E702207B
S214400EC0C047E1E70025357001AB0AAA03210DA80B
S214400ED0B847DBE7BD0B4000681B4000D81D40000C
S214400EE0981C4000081F4000781D4000E81F400046
S214400EF0D4044020D50440200D0E4000990D4000FB
S214400F00CD06400081F0004102E000BF83F0004380
S214400F1030B54FEA41044FEA430594EA050F08BF4F
S214400F2090EA020F1FBF54EA000C55EA020C7FEA13
S214400F30645C7FEA655C00F0E2804FEA5454D4EB90
S214400F405555B8BF6D420CDD2C4480EA020281EA5A
S214400F50030382EA000083EA010180EA020281EA92
S214400F600303362D88BF30BD11F0004F4FEA0131E4
S214400F704FF4801C4CEA113102D0404261EB4101F3
S214400F8013F0004F4FEA03334CEA133302D0524279
S214400F9063EB430394EA050F00F0A780A4F1010435
S214400FA0D5F1200E0DDB02FA0EFC22FA05F280186F
S214400FB041F1000103FA0EF2801843FA05F3594155
S214400FC00EE0A5F120050EF1200E012A03FA0EFCD4
S214400FD028BF4CF0020C43FA05F3C01851EBE371FE
S214400FE001F0004507D54FF0000EDCF1000C7EEB1B
S214400FF000006EEB0101B1F5801F1BD3B1F5001F59
S2144010000CD349085FEA30004FEA3C0C04F1010477
S2144010104FEA445212F5800F80F09A80BCF1004FA0
S21440102008BF5FEA500C50F1000041EB045141EA22
S214401030050130BD5FEA4C0C404141EB010111F423
S214401040801FA4F10104E9D191F0000F04BF0146CE
S2144010500020B1FA81F308BF2033A3F10B03B3F1AC
S21440106020020CDA0C3208DD02F1140CC2F10C023C
S21440107001FA0CF021FA02F10CE002F11402D8BF9A
S214401080C2F1200C01FA02F120FA0CFCDCBF41EA66
S2144010900C019040E41AA2BF01EB0451294330BD35
S2144010A06FEA04041F3C1CDA0C340EDC04F1140412
S2144010B0C4F1200220FA04F001FA02F340EA0300E9
S2144010C021FA04F345EA030130BDC4F10C04C4F12F
S2144010D0200220FA02F001FA04F340EA030029460F
S2144010E030BD21FA04F0294630BD94F0000F83F459
S2144010F0801306BF81F480110134013D4EE77FEA3C
S214401100645C18BF7FEA655C29D094EA050F08BF87
S21440111090EA020F05D054EA000C04BF1946104668
S21440112030BD91EA030F1EBF0021002030BD5FEAAC
S214401130545C05D14000494128BF41F0004130BDD4
S21440114014F580043CBF01F5801130BD01F0004528
S21440115045F0FE4141F470014FF0000030BD7FEA9B
S214401160645C1ABF194610467FEA655C1CBF0B4696
S214401170024650EA013406BF52EA033591EA030FAD
S21440118041F4002130BD00BF90F0000F04BF0021A5
S214401190704730B54FF4806404F132044FF00005D8
S2144011A04FF0000150E700BF90F0000F04BF002151
S2144011B0704730B54FF4806404F1320410F00045B7
S2144011C048BF40424FF000013EE700BF42004FEAB2
S2144011D0E2014FEA31014FEA02701FBF12F07F432F
S2144011E093F07F4F81F06051704792F0000F14BF2C
S2144011F093F07F4F704730B54FF4607401F0004570
S21440120021F0004120E700BF50EA010208BF7047C6
S21440121030B54FF000050AE050EA010208BF7047BB
S21440122030B511F0004502D5404261EB41014FF424
S214401230806404F132045FEA915C3FF4DCAE4FF028
S21440124003025FEADC0C18BF03325FEADC0C18BF0F
S214401250033202EBDC02C2F1200300FA03FC20FA60
S21440126002F001FA03FE40EA0E0021FA02F11444AD
S214401270C1E600BF70B54FF0FF0C4CF4E06C1CEAC2
S21440128011541DBF1CEA135594EA0C0F95EA0C0F37
S21440129000F0DEF82C4481EA030621EA4C5123EAAA
S2144012A04C5350EA013518BF52EA033541F48011D9
S2144012B043F4801338D0A0FB02CE4FF00005E1FB8C
S2144012C002E506F00042E0FB03E54FF00006E1FBD6
S2144012D003569CF0000F18BF4EF0010EA4F1FF0419
S2144012E0B6F5007F64F5407404D25FEA4E0E6D4159
S2144012F046EB060642EAC62141EA55514FEAC5206A
S21440130040EA5E504FEACE2EB4F1FD0C88BFBCF5E5
S214401310E06F1ED8BEF1004F08BF5FEA500E50F196
S214401320000041EB045170BD06F0004646EA01015C
S21440133040EA020081EA0301B4EB5C04C2BFD4EB8E
S2144013400C0541EA045170BD41F480114FF0000E87
S214401350013C00F3AB8014F1360FDEBF002001F0F5
S214401360004170BDC4F10004203C35DA0C341BDC6F
S21440137004F11404C4F1200500FA05F320FA04F041
S21440138001FA05F240EA020001F0004221F0004175
S21440139010EBD37021FA04F642EB06015EEA430EE8
S2144013A008BF20EAD37070BDC4F10C04C4F1200518
S2144013B000FA04F320FA05F001FA04F240EA0200CB
S2144013C001F0004110EBD37041F100015EEA430E9C
S2144013D008BF20EAD37070BDC4F1200500FA05F2BC
S2144013E04EEA020E20FA04F301FA05F243EA02033B
S2144013F021FA04F001F0004121FA04F220EA02004A
S21440140000EBD3705EEA430E08BF20EAD37070BD8F
S21440141094F0000F0FD101F00046400041EB01016F
S21440142011F4801F08BF013CF7D041EA060195F051
S214401430000F18BF704703F00046520043EB03030B
S21440144013F4801F08BF013DF7D043EA06037047F8
S21440145094EA0C0F0CEA135518BF95EA0C0F0CD003
S21440146050EA410618BF52EA4306D1D181EA030149
S21440147001F000414FF0000070BD50EA410606BF43
S2144014801046194652EA430619D094EA0C0F02D188
S21440149050EA013613D195EA0C0F05D152EA0336CD
S2144014A01CBF104619460AD181EA030101F00041EB
S2144014B041F0FE4141F470014FF0000070BD41F034
S2144014C0FE4141F4780170BD70B54FF0FF0C4CF40E
S2144014D0E06C1CEA11541DBF1CEA135594EA0C0F2D
S2144014E095EA0C0F00F0A7F8A4EB050481EA030E7A
S2144014F052EA03354FEA013100F088804FEA033361
S2144015004FF0805545EA131343EA12634FEA02222E
S21440151045EA111545EA10654FEA00260EF00041EF
S2144015209D4208BF964244F1FD0404F5407402D241
S2144015305B084FEA3202B61A65EB03055B084FEAD2
S21440154032024FF480104FF4002CB6EB020E75EBCF
S214401550030E22BFB61A754640EA0C005B084FEAF7
S2144015603202B6EB020E75EB030E22BFB61A754674
S21440157040EA5C005B084FEA3202B6EB020E75EBBF
S214401580030E22BFB61A754640EA9C005B084FEA37
S2144015903202B6EB020E75EB030E22BFB61A754644
S2144015A040EADC0055EA060E18D04FEA051545EA33
S2144015B016754FEA06164FEAC30343EA52734FEADC
S2144015C0C2025FEA1C1CC0D111F4801F0BD141EA55
S2144015D000014FF000004FF0004CB6E711F4801FBA
S2144015E004BF01430020B4F1FD0C88BFBCF5E06F9A
S2144015F03FF6AFAEB5EB030C04BFB6EB020C5FEAAA
S214401600500C50F1000041EB045170BD0EF0004EFE
S2144016104EEA113114EB5C04C2BFD4EB0C0541EA30
S214401620045170BD41F480114FF0000E013C90E62D
S21440163045EA060E8DE60CEA135594EA0C0F08BFF1
S21440164095EA0C0F3FF43BAF94EA0C0F0AD150EAF0
S21440165001347FF434AF95EA0C0F7FF425AF104683
S21440166019462CE795EA0C0F06D152EA03353FF4AB
S214401670FDAE1046194622E750EA410618BF52EA28
S21440168043067FF4C5AE50EA41047FF40DAF52EAFC
S21440169043057FF4EBAE12E74FEA410212F5001223
S2144016A015D211D56FF47873B3EB625212D94FEA64
S2144016B0C12343F0004343EA505311F0004F23FA4E
S2144016C002F018BF404270474FF00000704750EAA3
S2144016D0013005D111F0004008BF6FF00040704760
S2144016E04FF00000704700BF53B94AB9002908BF01
S2144016F000281CBF4FF0FF314FF0FF3000F07AB9A2
S214401700ADF1080C6DE904CE00F006F8DDF804E013
S214401710DDE9022304B070472DE9F0478C460D46BC
S2144017200446089E002B51D18A4217466DD9B2FA1C
S21440173082FEBEF1000F0BD0CEF1200C01FA0EF562
S21440174020FA0CFC02FA0EF74CEA050C00FA0EF4EE
S2144017504FEA174A250CBCFBFAF81FFA87F90AFB32
S21440176018CC45EA0C4508FB09F3AB420AD9ED19FB
S21440177008F1FF3280F02381AB4240F22081A8F18D
S21440178002083D44ED1AA4B2B5FBFAF00AFB105528
S21440179044EA054400FB09F9A14509D9E41900F1DA
S2144017A0FF3380F00A81A14540F2078102383C446D
S2144017B0A4EB090440EA08400021002E61D024FA38
S2144017C00EF4002334607360BDE8F0878B4207D97F
S2144017D0002E54D0002186E821000846BDE8F08758
S2144017E0B3FA83F1002940F08E80AB4202D38242A6
S2144017F000F2FA80841A65EB03050120AC46002E01
S2144018003FD086E81010BDE8F08712B90127B7FB35
S214401810F2F7B7FA87FEBEF1000F34D1EB1B3A0C55
S2144018201FFA87FC0121B3FBF2F8250C02FB1833A4
S21440183045EA03450CFB08F3AB4207D9ED1908F11E
S214401840FF3002D2AB4200F2D1808046ED1AA3B2FE
S214401850B5FBF2F002FB105543EA05440CFB00FCD6
S214401860A44507D9E41900F1FF3302D2A44500F29B
S214401870B8801846A4EB0C0440EA08409DE7314681
S2144018803046BDE8F087CEF1200405FA0EF307FA9D
S2144018900EF720FA04F83A0C25FA04F448EA03084E
S2144018A0B4FBF2F14FEA184502FB11441FFA87FCDD
S2144018B045EA044501FB0CF3AB4200FA0EF409D9A5
S2144018C0ED1901F1FF3080F08A80AB4240F287800C
S2144018D002393D44EB1A1FFA88F5B3FBF2F002FBDF
S2144018E0103345EA034500FB0CF3AB4207D9ED192C
S2144018F000F1FF386FD2AB426DD902383D44EB1A47
S21440190040EA01418FE7C1F1200722FA07F88B40F1
S21440191005FA01F448EA030320FA07FE4FEA134C9F
S214401920FD404EEA040EB5FBFCF94FEA1E440CFBA4
S21440193019551FFA83F844EA054509FB08F4AC42FA
S21440194002FA01F200FA01FA08D9ED1809F1FF305F
S21440195043D2AC4241D9A9F102091D442D1B1FFABE
S2144019608EFEB5FBFCF00CFB10554EEA054400FB22
S21440197008F8A04507D9E41800F1FF3529D2A0455C
S21440198027D902381C4440EA0940A4EB0804A0FBCF
S21440199002894C45C6464D4615D312D056B1BAEBD1
S2144019A00E0364EB050404FA07F7CB401F43CC4014
S2144019B0376074600021BDE8F0871846F8E6904628
S2144019C0E0E6C245EAD2B8EB020E69EB0305013801
S2144019D0E4E72846D7E7404691E78146BEE701461A
S2144019E078E702383C4445E7084608E7A8F102088D
S2144019F03D442BE7704700BF70B50F4E0F4D761B2A
S214401A00B61018BF002405D0013455F8043B98475B
S214401A10A642F9D10A4E0B4D761B00F017FBB610C6
S214401A2018BF002406D0013455F8043B9847A64218
S214401A30F9D170BD70BD00BF58204000582040000E
S214401A406020400058204000024B13B1024800F08E
S214401A5005B8704700000000691A400000230146A0
S214401A601A46184600F01EB838B50A4C0A4D641B94
S214401A70A4100AD004F18043013B05EB8305013CEA
S214401A8055F804399847002CF9D1BDE8384000F0A5
S214401A90E7BA00BF702040006C204000704700BF8F
S214401AA0704700BF2DE9F8432C4D064628689846F7
S214401AB00F469146FFF7F2FF294B1C68D4F8483191
S214401AC0002B3ED05A681F2A1CDC02F1010E76B16C
S214401AD003EB82010124C1F88890D3F88801944032
S214401AE02043022EC3F88801C1F8088123D0023271
S214401AF0C3F804E0286843F82270FFF7D1FF0020BF
S214401B00BDE8F883174B0BB34FF4C870AFF30080B3
S214401B100346D8B1D4F848210260002141600A4605
S214401B20C4F848014FF0010EC0F88811C0F88C1177
S214401B30002EDCD0CCE7D3F88C110C43C3F88C4194
S214401B40D5E704F5A673C4F84831BBE72868FFF725
S214401B50A7FF4FF0FF30BDE8F88300BF38044020B1
S214401B6048204000000000004D0A00004D0A0000DA
S214401B70000000004D0A0000000000002D08000094
S214401B804D0A000000000000400C0000000000006D
S214401B9000000000000000002006000000000000DA
S214401BA000000000000000002D08000000000000BB
S214401BB000000000200600000000000000000000BA
S214401BC0270500000000000000000000E0060000BE
S214401BD000000000B80700000000000049070000B1
S214401BE0E006000000000000200600004D0A00004D
S214401BF0400C0000C00D000000000000EA0A000093
S214401C00400C0000000000004D0A000000000000EC
S214401C102D0800002D090000B80700000000000055
S214401C20000000002D08000000000000000000003A
S214401C30200600000000000000000000270500000D
S214401C400000000000000000E00600000000000069
S214401C50B80700000000000049070000E00600004A
S214401C6000000000200600004D0A0000400C000066
S214401C70C00D000000000000EA0A0000400C000012
S214401C80000000004D0A0000000000002D08000083
S214401C902D090000B8070000060100000B020000F6
S214401CA0DC000000B8010000E9000000D20100009E
S214401CB00000000000000000060100000B020000CB
S214401CC0DC000000B8010000E9000000D20100007E
S214401CD00000000000000000AF0000005D010000B2
S214401CE093000000260100009C0000003701000021
S214401CF00000000000000000AF0000005D01000092
S214401D0093000000260100009C0000003701000000
S214401D100000000000000000370100001501000030
S214401D2026010000150100003701000037010000C1
S214401D30D0000000C40000001501000006010000AD
S214401D40720100005D010000A5000000D201000005
S214401D50B80100009F01000037010000F7000000B6
S214401D60E9000000DC000000D00000000000000099
S214401D700000000000000000E4020000E402000052
S214401D804B020000EE010000EE010000930200004E
S214401D9093020000930200003F0300003F03000050
S214401DA070030000DC0300007003000070030000B6
S214401DB070030000930200004B020000E4020000A3
S214401DC0E4020000E40200009302000093020000D8
S214401DD0E4020000930200000C0000000C0000002B
S214401DE00C0000000C0000000C0000000C0000007E
S214401DF00C0000000C0000000C0000000C0000006E
S214401E000C0000000C0000000C0000000C0000005D
S214401E100C0000000C0000000C0000000C0000004D
S214401E200C0000000C0000000C0000000C0000003D
S214401E300C0000000C0000000C0000000C0000002D
S214401E400C0000000C0000000C0000000C0000001D
S214401E500C0000000C000000090000000900000013
S214401E60090000000C0000000C0000000C00000000
S214401E700C0000000C0000000C0000000C000000ED
S214401E800C0000000C0000000C0000000C000000DD
S214401E900C0000000C0000000C0000000C000000CD
S214401EA00C0000000C0000000C0000000C000000BD
S214401EB00C0000000C0000000C0000000C000000AD
S214401EC00C0000000C0000000C0000000C0000009D
S214401ED00C00000009000000090000000900000096
S214401EE00C0000000C0000000C0000000C0000007D
S214401EF00C0000000C0000000C0000000C0000006D
S214401F000C0000000C0000000C0000000C0000005C
S214401F100C0000000C0000000C0000000C0000004C
S214401F2006000000030000000C0000000C0000004B
S214401F300C0000000C0000000C0000000C0000002C
S214401F4006000000030000000C0000000C0000002B
S214401F500C0000000C0000000C0000000C0000000C
S214401F6006000000030000000C0000000C0000000B
S214401F700C0000000C0000000C0000000C000000EC
S214401F8006000000060000001200000012000000DC
S214401F9012000000060000000600000006000000D8
S214401FA006000000060000000600000012000000C8
S214401FB01200000012000000120000001200000094
S214401FC0120000000A0000000A0000000A0000009C
S214401FD00A0000000A0000000A000000030000009B
S214401FE00300000003000000080000000800000096
S214401FF00800000004000000040000000400000088
S2144020000400000005000000080000000800000072
S214402010080000000800000008000000080000005B
S2144020200800000004000000040000000400000057
S2144020300400000005000000080000000800000042
S214402040080000000800000010004020F8B500BF5F
S214402050F8BC08BC9E467047491A400065014000DF
S214402060F8B500BFF8BC08BC9E467047410140002A
S20C402070A8F6FF7F0100000006
S214402078BFF35F8F0138FBD17047010000093D0070
S21440208800000000FC02402064034020CC034020AF
S21440209800000000000000000000000000000000F3
S2144020A800000000000000000000000000000000E3
S2144020B800000000000000000000000000000000D3
S2144020C800000000000000000000000000000000C3
S2144020D800000000000000000000000000000000B3
S2144020E800000000000000000000000000000000A3
S2144020F80000000000000000000000000000000093
S2144021080000000000000000000000000000000082
S2144021180000000000000000000000000000000072
S2144021280000000000000000010000000000000061
S2144021380E33CDAB34126DE6ECDE05000B00000026
S2144021480000000000000000000000000000000042
S2144021580000000000000000000000000000000032
S2144021680000000000000000000000000000000022
S2144021780000000000000000000000000000000012
S2104024A80000000000000000D8044020A7
S8044009456D
